{
    "_format": "hh-sol-artifact-1",
    "contractName": "UniswapV2Factory",
    "sourceName": "contracts/solidity/amm/core/UniswapV2Factory.sol",
    "abi": [
        {
            "inputs": [
                {
                    "internalType": "address",
                    "name": "_feeToSetter",
                    "type": "address"
                }
            ],
            "stateMutability": "nonpayable",
            "type": "constructor"
        },
        {
            "anonymous": false,
            "inputs": [
                {
                    "indexed": true,
                    "internalType": "address",
                    "name": "token0",
                    "type": "address"
                },
                {
                    "indexed": true,
                    "internalType": "address",
                    "name": "token1",
                    "type": "address"
                },
                {
                    "indexed": false,
                    "internalType": "address",
                    "name": "pair",
                    "type": "address"
                },
                {
                    "indexed": false,
                    "internalType": "uint256",
                    "name": "",
                    "type": "uint256"
                }
            ],
            "name": "PairCreated",
            "type": "event"
        },
        {
            "inputs": [],
            "name": "INIT_CODE_PAIR_HASH",
            "outputs": [
                {
                    "internalType": "bytes32",
                    "name": "",
                    "type": "bytes32"
                }
            ],
            "stateMutability": "view",
            "type": "function"
        },
        {
            "inputs": [
                {
                    "internalType": "uint256",
                    "name": "",
                    "type": "uint256"
                }
            ],
            "name": "allPairs",
            "outputs": [
                {
                    "internalType": "address",
                    "name": "",
                    "type": "address"
                }
            ],
            "stateMutability": "view",
            "type": "function"
        },
        {
            "inputs": [],
            "name": "allPairsLength",
            "outputs": [
                {
                    "internalType": "uint256",
                    "name": "",
                    "type": "uint256"
                }
            ],
            "stateMutability": "view",
            "type": "function"
        },
        {
            "inputs": [
                {
                    "internalType": "address",
                    "name": "tokenA",
                    "type": "address"
                },
                {
                    "internalType": "address",
                    "name": "tokenB",
                    "type": "address"
                }
            ],
            "name": "createPair",
            "outputs": [
                {
                    "internalType": "address",
                    "name": "pair",
                    "type": "address"
                }
            ],
            "stateMutability": "nonpayable",
            "type": "function"
        },
        {
            "inputs": [],
            "name": "feeTo",
            "outputs": [
                {
                    "internalType": "address",
                    "name": "",
                    "type": "address"
                }
            ],
            "stateMutability": "view",
            "type": "function"
        },
        {
            "inputs": [],
            "name": "feeToSetter",
            "outputs": [
                {
                    "internalType": "address",
                    "name": "",
                    "type": "address"
                }
            ],
            "stateMutability": "view",
            "type": "function"
        },
        {
            "inputs": [
                {
                    "internalType": "address",
                    "name": "",
                    "type": "address"
                },
                {
                    "internalType": "address",
                    "name": "",
                    "type": "address"
                }
            ],
            "name": "getPair",
            "outputs": [
                {
                    "internalType": "address",
                    "name": "",
                    "type": "address"
                }
            ],
            "stateMutability": "view",
            "type": "function"
        },
        {
            "inputs": [],
            "name": "migrator",
            "outputs": [
                {
                    "internalType": "address",
                    "name": "",
                    "type": "address"
                }
            ],
            "stateMutability": "view",
            "type": "function"
        },
        {
            "inputs": [],
            "name": "pairCodeHash",
            "outputs": [
                {
                    "internalType": "bytes32",
                    "name": "",
                    "type": "bytes32"
                }
            ],
            "stateMutability": "pure",
            "type": "function"
        },
        {
            "inputs": [
                {
                    "internalType": "address",
                    "name": "_feeTo",
                    "type": "address"
                }
            ],
            "name": "setFeeTo",
            "outputs": [],
            "stateMutability": "nonpayable",
            "type": "function"
        },
        {
            "inputs": [
                {
                    "internalType": "address",
                    "name": "_feeToSetter",
                    "type": "address"
                }
            ],
            "name": "setFeeToSetter",
            "outputs": [],
            "stateMutability": "nonpayable",
            "type": "function"
        },
        {
            "inputs": [
                {
                    "internalType": "address",
                    "name": "_migrator",
                    "type": "address"
                }
            ],
            "name": "setMigrator",
            "outputs": [],
            "stateMutability": "nonpayable",
            "type": "function"
        }
    ],
    "bytecode": "0x60806040523480156200001157600080fd5b5060405162005855380380620058558339818101604052810190620000379190620000e9565b80600160006101000a81548173ffffffffffffffffffffffffffffffffffffffff021916908373ffffffffffffffffffffffffffffffffffffffff160217905550506200011b565b600080fd5b600073ffffffffffffffffffffffffffffffffffffffff82169050919050565b6000620000b18262000084565b9050919050565b620000c381620000a4565b8114620000cf57600080fd5b50565b600081519050620000e381620000b8565b92915050565b6000602082840312156200010257620001016200007f565b5b60006200011284828501620000d2565b91505092915050565b61572a806200012b6000396000f3fe60806040523480156200001157600080fd5b5060043610620000c45760003560e01c80637cd07e47116200007b5780637cd07e4714620001a75780639aab924814620001c9578063a2e74af614620001eb578063c9c65396146200020b578063e6a439051462000241578063f46901ed146200027757620000c4565b8063017e7e5814620000c9578063094b741514620000eb5780631e3dd18b146200010d57806323cf31181462000143578063574f2ba314620001635780635855a25a1462000185575b600080fd5b620000d362000297565b604051620000e2919062000c54565b60405180910390f35b620000f5620002bb565b60405162000104919062000c54565b60405180910390f35b6200012b600480360381019062000125919062000cb1565b620002e1565b6040516200013a919062000c54565b60405180910390f35b6200016160048036038101906200015b919062000d14565b62000321565b005b6200016d620003f8565b6040516200017c919062000d57565b60405180910390f35b6200018f62000405565b6040516200019e919062000d8f565b60405180910390f35b620001b162000456565b604051620001c0919062000c54565b60405180910390f35b620001d36200047c565b604051620001e2919062000d8f565b60405180910390f35b62000209600480360381019062000203919062000d14565b620004b0565b005b62000229600480360381019062000223919062000dac565b62000587565b60405162000238919062000c54565b60405180910390f35b6200025f600480360381019062000259919062000dac565b62000ae9565b6040516200026e919062000c54565b60405180910390f35b6200029560048036038101906200028f919062000d14565b62000b2b565b005b60008054906101000a900473ffffffffffffffffffffffffffffffffffffffff1681565b600160009054906101000a900473ffffffffffffffffffffffffffffffffffffffff1681565b60048181548110620002f257600080fd5b906000526020600020016000915054906101000a900473ffffffffffffffffffffffffffffffffffffffff1681565b600160009054906101000a900473ffffffffffffffffffffffffffffffffffffffff1673ffffffffffffffffffffffffffffffffffffffff163373ffffffffffffffffffffffffffffffffffffffff1614620003b4576040517f08c379a0000000000000000000000000000000000000000000000000000000008152600401620003ab9062000e54565b60405180910390fd5b80600260006101000a81548173ffffffffffffffffffffffffffffffffffffffff021916908373ffffffffffffffffffffffffffffffffffffffff16021790555050565b6000600480549050905090565b60405180602001620004179062000c01565b6020820181038252601f19601f820116604052506040516020016200043d919062000ef9565b6040516020818303038152906040528051906020012081565b600260009054906101000a900473ffffffffffffffffffffffffffffffffffffffff1681565b600060405180602001620004909062000c01565b6020820181038252601f19601f8201166040525080519060200120905090565b600160009054906101000a900473ffffffffffffffffffffffffffffffffffffffff1673ffffffffffffffffffffffffffffffffffffffff163373ffffffffffffffffffffffffffffffffffffffff161462000543576040517f08c379a00000000000000000000000000000000000000000000000000000000081526004016200053a9062000e54565b60405180910390fd5b80600160006101000a81548173ffffffffffffffffffffffffffffffffffffffff021916908373ffffffffffffffffffffffffffffffffffffffff16021790555050565b60008173ffffffffffffffffffffffffffffffffffffffff168373ffffffffffffffffffffffffffffffffffffffff161415620005fb576040517f08c379a0000000000000000000000000000000000000000000000000000000008152600401620005f29062000f62565b60405180910390fd5b6000808373ffffffffffffffffffffffffffffffffffffffff168573ffffffffffffffffffffffffffffffffffffffff16106200063a5783856200063d565b84845b91509150600073ffffffffffffffffffffffffffffffffffffffff168273ffffffffffffffffffffffffffffffffffffffff161415620006b4576040517f08c379a0000000000000000000000000000000000000000000000000000000008152600401620006ab9062000fd4565b60405180910390fd5b600073ffffffffffffffffffffffffffffffffffffffff16600360008473ffffffffffffffffffffffffffffffffffffffff1673ffffffffffffffffffffffffffffffffffffffff16815260200190815260200160002060008373ffffffffffffffffffffffffffffffffffffffff1673ffffffffffffffffffffffffffffffffffffffff16815260200190815260200160002060009054906101000a900473ffffffffffffffffffffffffffffffffffffffff1673ffffffffffffffffffffffffffffffffffffffff1614620007c2576040517f08c379a0000000000000000000000000000000000000000000000000000000008152600401620007b99062001046565b60405180910390fd5b600060405180602001620007d69062000c01565b6020820181038252601f19601f8201166040525090506000838360405160200162000803929190620010b8565b604051602081830303815290604052805190602001209050808251602084016000f594508473ffffffffffffffffffffffffffffffffffffffff1663485cc95585856040518363ffffffff1660e01b815260040162000864929190620010e8565b600060405180830381600087803b1580156200087f57600080fd5b505af115801562000894573d6000803e3d6000fd5b5050505084600360008673ffffffffffffffffffffffffffffffffffffffff1673ffffffffffffffffffffffffffffffffffffffff16815260200190815260200160002060008573ffffffffffffffffffffffffffffffffffffffff1673ffffffffffffffffffffffffffffffffffffffff16815260200190815260200160002060006101000a81548173ffffffffffffffffffffffffffffffffffffffff021916908373ffffffffffffffffffffffffffffffffffffffff16021790555084600360008573ffffffffffffffffffffffffffffffffffffffff1673ffffffffffffffffffffffffffffffffffffffff16815260200190815260200160002060008673ffffffffffffffffffffffffffffffffffffffff1673ffffffffffffffffffffffffffffffffffffffff16815260200190815260200160002060006101000a81548173ffffffffffffffffffffffffffffffffffffffff021916908373ffffffffffffffffffffffffffffffffffffffff1602179055506004859080600181540180825580915050600190039060005260206000200160009091909190916101000a81548173ffffffffffffffffffffffffffffffffffffffff021916908373ffffffffffffffffffffffffffffffffffffffff1602179055508273ffffffffffffffffffffffffffffffffffffffff168473ffffffffffffffffffffffffffffffffffffffff167f0d3648bd0f6ba80134a33ba9275ac585d9d315f0ad8355cddefde31afa28d0e98760048054905060405162000ad792919062001115565b60405180910390a35050505092915050565b60036020528160005260406000206020528060005260406000206000915091509054906101000a900473ffffffffffffffffffffffffffffffffffffffff1681565b600160009054906101000a900473ffffffffffffffffffffffffffffffffffffffff1673ffffffffffffffffffffffffffffffffffffffff163373ffffffffffffffffffffffffffffffffffffffff161462000bbe576040517f08c379a000000000000000000000000000000000000000000000000000000000815260040162000bb59062000e54565b60405180910390fd5b806000806101000a81548173ffffffffffffffffffffffffffffffffffffffff021916908373ffffffffffffffffffffffffffffffffffffffff16021790555050565b6145b2806200114383390190565b600073ffffffffffffffffffffffffffffffffffffffff82169050919050565b600062000c3c8262000c0f565b9050919050565b62000c4e8162000c2f565b82525050565b600060208201905062000c6b600083018462000c43565b92915050565b600080fd5b6000819050919050565b62000c8b8162000c76565b811462000c9757600080fd5b50565b60008135905062000cab8162000c80565b92915050565b60006020828403121562000cca5762000cc962000c71565b5b600062000cda8482850162000c9a565b91505092915050565b62000cee8162000c2f565b811462000cfa57600080fd5b50565b60008135905062000d0e8162000ce3565b92915050565b60006020828403121562000d2d5762000d2c62000c71565b5b600062000d3d8482850162000cfd565b91505092915050565b62000d518162000c76565b82525050565b600060208201905062000d6e600083018462000d46565b92915050565b6000819050919050565b62000d898162000d74565b82525050565b600060208201905062000da6600083018462000d7e565b92915050565b6000806040838503121562000dc65762000dc562000c71565b5b600062000dd68582860162000cfd565b925050602062000de98582860162000cfd565b9150509250929050565b600082825260208201905092915050565b7f556e697377617056323a20464f5242494444454e000000000000000000000000600082015250565b600062000e3c60148362000df3565b915062000e498262000e04565b602082019050919050565b6000602082019050818103600083015262000e6f8162000e2d565b9050919050565b600081519050919050565b600081905092915050565b60005b8381101562000eac57808201518184015260208101905062000e8f565b8381111562000ebc576000848401525b50505050565b600062000ecf8262000e76565b62000edb818562000e81565b935062000eed81856020860162000e8c565b80840191505092915050565b600062000f07828462000ec2565b915081905092915050565b7f556e697377617056323a204944454e544943414c5f4144445245535345530000600082015250565b600062000f4a601e8362000df3565b915062000f578262000f12565b602082019050919050565b6000602082019050818103600083015262000f7d8162000f3b565b9050919050565b7f556e697377617056323a205a45524f5f41444452455353000000000000000000600082015250565b600062000fbc60178362000df3565b915062000fc98262000f84565b602082019050919050565b6000602082019050818103600083015262000fef8162000fad565b9050919050565b7f556e697377617056323a20504149525f45584953545300000000000000000000600082015250565b60006200102e60168362000df3565b91506200103b8262000ff6565b602082019050919050565b6000602082019050818103600083015262001061816200101f565b9050919050565b60008160601b9050919050565b6000620010828262001068565b9050919050565b6000620010968262001075565b9050919050565b620010b2620010ac8262000c2f565b62001089565b82525050565b6000620010c682856200109d565b601482019150620010d882846200109d565b6014820191508190509392505050565b6000604082019050620010ff600083018562000c43565b6200110e602083018462000c43565b9392505050565b60006040820190506200112c600083018562000c43565b6200113b602083018462000d46565b939250505056fe60806040526001600c553480156200001657600080fd5b5060004690507f8b73c3c69bb8fe3d512ecc4cf759cc79239f7b179b0ffacaa9a75d522b39400f6040518060400160405280601281526020017f537573686953776170204c5020546f6b656e0000000000000000000000000000815250805190602001206040518060400160405280600181526020017f3100000000000000000000000000000000000000000000000000000000000000815250805190602001208330604051602001620000cf959493929190620001ae565b604051602081830303815290604052805190602001206003819055505033600560006101000a81548173ffffffffffffffffffffffffffffffffffffffff021916908373ffffffffffffffffffffffffffffffffffffffff1602179055506200020b565b6000819050919050565b620001488162000133565b82525050565b6000819050919050565b62000163816200014e565b82525050565b600073ffffffffffffffffffffffffffffffffffffffff82169050919050565b6000620001968262000169565b9050919050565b620001a88162000189565b82525050565b600060a082019050620001c560008301886200013d565b620001d460208301876200013d565b620001e360408301866200013d565b620001f2606083018562000158565b6200020160808301846200019d565b9695505050505050565b614397806200021b6000396000f3fe608060405234801561001057600080fd5b50600436106101a95760003560e01c80636a627842116100f9578063ba9a7a5611610097578063d21220a711610071578063d21220a7146104db578063d505accf146104f9578063dd62ed3e14610515578063fff6cae914610545576101a9565b8063ba9a7a5614610483578063bc25cf77146104a1578063c45a0155146104bd576101a9565b80637ecebe00116100d35780637ecebe00146103d457806389afcb441461040457806395d89b4114610435578063a9059cbb14610453576101a9565b80636a6278421461035657806370a08231146103865780637464fc3d146103b6576101a9565b806323b872dd116101665780633644e515116101405780633644e515146102e0578063485cc955146102fe5780635909c0d51461031a5780635a3d549314610338576101a9565b806323b872dd1461027457806330adf81f146102a4578063313ce567146102c2576101a9565b8063022c0d9f146101ae57806306fdde03146101ca5780630902f1ac146101e8578063095ea7b3146102085780630dfe16811461023857806318160ddd14610256575b600080fd5b6101c860048036038101906101c39190612f9f565b61054f565b005b6101d2610ba1565b6040516101df91906130c0565b60405180910390f35b6101f0610bda565b6040516101ff9392919061312a565b60405180910390f35b610222600480360381019061021d9190613161565b610c37565b60405161022f91906131bc565b60405180910390f35b610240610c4e565b60405161024d91906131e6565b60405180910390f35b61025e610c74565b60405161026b9190613210565b60405180910390f35b61028e6004803603810190610289919061322b565b610c7a565b60405161029b91906131bc565b60405180910390f35b6102ac610e45565b6040516102b99190613297565b60405180910390f35b6102ca610e6c565b6040516102d791906132ce565b60405180910390f35b6102e8610e71565b6040516102f59190613297565b60405180910390f35b610318600480360381019061031391906132e9565b610e77565b005b610322610f8d565b60405161032f9190613210565b60405180910390f35b610340610f93565b60405161034d9190613210565b60405180910390f35b610370600480360381019061036b9190613329565b610f99565b60405161037d9190613210565b60405180910390f35b6103a0600480360381019061039b9190613329565b6115a2565b6040516103ad9190613210565b60405180910390f35b6103be6115ba565b6040516103cb9190613210565b60405180910390f35b6103ee60048036038101906103e99190613329565b6115c0565b6040516103fb9190613210565b60405180910390f35b61041e60048036038101906104199190613329565b6115d8565b60405161042c929190613356565b60405180910390f35b61043d611a82565b60405161044a91906130c0565b60405180910390f35b61046d60048036038101906104689190613161565b611abb565b60405161047a91906131bc565b60405180910390f35b61048b611ad2565b6040516104989190613210565b60405180910390f35b6104bb60048036038101906104b69190613329565b611ad8565b005b6104c5611d04565b6040516104d291906131e6565b60405180910390f35b6104e3611d2a565b6040516104f091906131e6565b60405180910390f35b610513600480360381019061050e91906133d7565b611d50565b005b61052f600480360381019061052a91906132e9565b611f78565b60405161053c9190613210565b60405180910390f35b61054d611f9d565b005b6001600c5414610594576040517f08c379a000000000000000000000000000000000000000000000000000000000815260040161058b906134c5565b60405180910390fd5b6000600c8190555060008511806105ab5750600084115b6105ea576040517f08c379a00000000000000000000000000000000000000000000000000000000081526004016105e190613557565b60405180910390fd5b6000806105f5610bda565b5091509150816dffffffffffffffffffffffffffff16871080156106285750806dffffffffffffffffffffffffffff1686105b610667576040517f08c379a000000000000000000000000000000000000000000000000000000000815260040161065e906135e9565b60405180910390fd5b6000806000600660009054906101000a900473ffffffffffffffffffffffffffffffffffffffff1690506000600760009054906101000a900473ffffffffffffffffffffffffffffffffffffffff1690508173ffffffffffffffffffffffffffffffffffffffff168973ffffffffffffffffffffffffffffffffffffffff161415801561072057508073ffffffffffffffffffffffffffffffffffffffff168973ffffffffffffffffffffffffffffffffffffffff1614155b61075f576040517f08c379a000000000000000000000000000000000000000000000000000000000815260040161075690613655565b60405180910390fd5b60008b111561077457610773828a8d61216e565b5b60008a111561078957610788818a8c61216e565b5b6000888890501115610809578873ffffffffffffffffffffffffffffffffffffffff166310d1e85c338d8d8c8c6040518663ffffffff1660e01b81526004016107d69594939291906136c2565b600060405180830381600087803b1580156107f057600080fd5b505af1158015610804573d6000803e3d6000fd5b505050505b8173ffffffffffffffffffffffffffffffffffffffff166370a08231306040518263ffffffff1660e01b815260040161084291906131e6565b602060405180830381865afa15801561085f573d6000803e3d6000fd5b505050506040513d601f19601f820116820180604052508101906108839190613725565b93508073ffffffffffffffffffffffffffffffffffffffff166370a08231306040518263ffffffff1660e01b81526004016108be91906131e6565b602060405180830381865afa1580156108db573d6000803e3d6000fd5b505050506040513d601f19601f820116820180604052508101906108ff9190613725565b92505050600089856dffffffffffffffffffffffffffff166109219190613781565b831161092e576000610956565b89856dffffffffffffffffffffffffffff1661094a9190613781565b836109559190613781565b5b9050600089856dffffffffffffffffffffffffffff166109769190613781565b83116109835760006109ab565b89856dffffffffffffffffffffffffffff1661099f9190613781565b836109aa9190613781565b5b905060008211806109bc5750600081115b6109fb576040517f08c379a00000000000000000000000000000000000000000000000000000000081526004016109f290613827565b60405180910390fd5b6000610a37610a146003856122f890919063ffffffff16565b610a296103e8886122f890919063ffffffff16565b61236590919063ffffffff16565b90506000610a75610a526003856122f890919063ffffffff16565b610a676103e8886122f890919063ffffffff16565b61236590919063ffffffff16565b9050610abf620f4240610ab1896dffffffffffffffffffffffffffff168b6dffffffffffffffffffffffffffff166122f890919063ffffffff16565b6122f890919063ffffffff16565b610ad282846122f890919063ffffffff16565b1015610b13576040517f08c379a0000000000000000000000000000000000000000000000000000000008152600401610b0a90613893565b60405180910390fd5b5050610b21848488886123be565b8873ffffffffffffffffffffffffffffffffffffffff163373ffffffffffffffffffffffffffffffffffffffff167fd78ad95fa46c994b6551d0da85fc275fe613ce37657fb8d5e3d130840159d82284848f8f604051610b8494939291906138b3565b60405180910390a35050505050506001600c819055505050505050565b6040518060400160405280601281526020017f537573686953776170204c5020546f6b656e000000000000000000000000000081525081565b6000806000600860009054906101000a90046dffffffffffffffffffffffffffff1692506008600e9054906101000a90046dffffffffffffffffffffffffffff1691506008601c9054906101000a900463ffffffff169050909192565b6000610c443384846126d2565b6001905092915050565b600660009054906101000a900473ffffffffffffffffffffffffffffffffffffffff1681565b60005481565b60007fffffffffffffffffffffffffffffffffffffffffffffffffffffffffffffffff600260008673ffffffffffffffffffffffffffffffffffffffff1673ffffffffffffffffffffffffffffffffffffffff16815260200190815260200160002060003373ffffffffffffffffffffffffffffffffffffffff1673ffffffffffffffffffffffffffffffffffffffff1681526020019081526020016000205414610e2f57610dae82600260008773ffffffffffffffffffffffffffffffffffffffff1673ffffffffffffffffffffffffffffffffffffffff16815260200190815260200160002060003373ffffffffffffffffffffffffffffffffffffffff1673ffffffffffffffffffffffffffffffffffffffff1681526020019081526020016000205461236590919063ffffffff16565b600260008673ffffffffffffffffffffffffffffffffffffffff1673ffffffffffffffffffffffffffffffffffffffff16815260200190815260200160002060003373ffffffffffffffffffffffffffffffffffffffff1673ffffffffffffffffffffffffffffffffffffffff168152602001908152602001600020819055505b610e3a8484846127bd565b600190509392505050565b7f6e71edae12b1b97f4d1f60370fef10105fa2faae0126114a169c64845d6126c960001b81565b601281565b60035481565b600560009054906101000a900473ffffffffffffffffffffffffffffffffffffffff1673ffffffffffffffffffffffffffffffffffffffff163373ffffffffffffffffffffffffffffffffffffffff1614610f07576040517f08c379a0000000000000000000000000000000000000000000000000000000008152600401610efe90613944565b60405180910390fd5b81600660006101000a81548173ffffffffffffffffffffffffffffffffffffffff021916908373ffffffffffffffffffffffffffffffffffffffff16021790555080600760006101000a81548173ffffffffffffffffffffffffffffffffffffffff021916908373ffffffffffffffffffffffffffffffffffffffff1602179055505050565b60095481565b600a5481565b60006001600c5414610fe0576040517f08c379a0000000000000000000000000000000000000000000000000000000008152600401610fd7906134c5565b60405180910390fd5b6000600c81905550600080610ff3610bda565b50915091506000600660009054906101000a900473ffffffffffffffffffffffffffffffffffffffff1673ffffffffffffffffffffffffffffffffffffffff166370a08231306040518263ffffffff1660e01b815260040161105591906131e6565b602060405180830381865afa158015611072573d6000803e3d6000fd5b505050506040513d601f19601f820116820180604052508101906110969190613725565b90506000600760009054906101000a900473ffffffffffffffffffffffffffffffffffffffff1673ffffffffffffffffffffffffffffffffffffffff166370a08231306040518263ffffffff1660e01b81526004016110f591906131e6565b602060405180830381865afa158015611112573d6000803e3d6000fd5b505050506040513d601f19601f820116820180604052508101906111369190613725565b9050600061115d856dffffffffffffffffffffffffffff168461236590919063ffffffff16565b90506000611184856dffffffffffffffffffffffffffff168461236590919063ffffffff16565b905060006111928787612951565b90506000805490506000811415611405576000600560009054906101000a900473ffffffffffffffffffffffffffffffffffffffff1673ffffffffffffffffffffffffffffffffffffffff16637cd07e476040518163ffffffff1660e01b8152600401602060405180830381865afa158015611212573d6000803e3d6000fd5b505050506040513d601f19601f820116820180604052508101906112369190613979565b90508073ffffffffffffffffffffffffffffffffffffffff163373ffffffffffffffffffffffffffffffffffffffff161415611351578073ffffffffffffffffffffffffffffffffffffffff166340dc0e376040518163ffffffff1660e01b8152600401602060405180830381865afa1580156112b7573d6000803e3d6000fd5b505050506040513d601f19601f820116820180604052508101906112db9190613725565b995060008a11801561130d57507fffffffffffffffffffffffffffffffffffffffffffffffffffffffffffffffff8a14155b61134c576040517f08c379a0000000000000000000000000000000000000000000000000000000008152600401611343906139f2565b60405180910390fd5b6113ff565b600073ffffffffffffffffffffffffffffffffffffffff168173ffffffffffffffffffffffffffffffffffffffff16146113c0576040517f08c379a00000000000000000000000000000000000000000000000000000000081526004016113b790613a5e565b60405180910390fd5b6113ef6103e86113e16113dc87896122f890919063ffffffff16565b612b22565b61236590919063ffffffff16565b99506113fe60006103e8612b9c565b5b5061146c565b611469886dffffffffffffffffffffffffffff1661142c83876122f890919063ffffffff16565b6114369190613aad565b886dffffffffffffffffffffffffffff1661145a84876122f890919063ffffffff16565b6114649190613aad565b612cb6565b98505b600089116114af576040517f08c379a00000000000000000000000000000000000000000000000000000000081526004016114a690613b50565b60405180910390fd5b6114b98a8a612b9c565b6114c586868a8a6123be565b811561153d576115366008600e9054906101000a90046dffffffffffffffffffffffffffff166dffffffffffffffffffffffffffff16600860009054906101000a90046dffffffffffffffffffffffffffff166dffffffffffffffffffffffffffff166122f890919063ffffffff16565b600b819055505b3373ffffffffffffffffffffffffffffffffffffffff167f4c209b5fc8ad50758f13e2e1088ba56a560dff690a1c6fef26394f4c03821c4f8585604051611585929190613356565b60405180910390a250505050505050506001600c81905550919050565b60016020528060005260406000206000915090505481565b600b5481565b60046020528060005260406000206000915090505481565b6000806001600c5414611620576040517f08c379a0000000000000000000000000000000000000000000000000000000008152600401611617906134c5565b60405180910390fd5b6000600c81905550600080611633610bda565b50915091506000600660009054906101000a900473ffffffffffffffffffffffffffffffffffffffff1690506000600760009054906101000a900473ffffffffffffffffffffffffffffffffffffffff16905060008273ffffffffffffffffffffffffffffffffffffffff166370a08231306040518263ffffffff1660e01b81526004016116c191906131e6565b602060405180830381865afa1580156116de573d6000803e3d6000fd5b505050506040513d601f19601f820116820180604052508101906117029190613725565b905060008273ffffffffffffffffffffffffffffffffffffffff166370a08231306040518263ffffffff1660e01b815260040161173f91906131e6565b602060405180830381865afa15801561175c573d6000803e3d6000fd5b505050506040513d601f19601f820116820180604052508101906117809190613725565b90506000600160003073ffffffffffffffffffffffffffffffffffffffff1673ffffffffffffffffffffffffffffffffffffffff16815260200190815260200160002054905060006117d28888612951565b9050600080549050806117ee86856122f890919063ffffffff16565b6117f89190613aad565b9a508061180e85856122f890919063ffffffff16565b6118189190613aad565b995060008b11801561182a575060008a115b611869576040517f08c379a000000000000000000000000000000000000000000000000000000000815260040161186090613be2565b60405180910390fd5b6118733084612ccf565b61187e878d8d61216e565b611889868d8c61216e565b8673ffffffffffffffffffffffffffffffffffffffff166370a08231306040518263ffffffff1660e01b81526004016118c291906131e6565b602060405180830381865afa1580156118df573d6000803e3d6000fd5b505050506040513d601f19601f820116820180604052508101906119039190613725565b94508573ffffffffffffffffffffffffffffffffffffffff166370a08231306040518263ffffffff1660e01b815260040161193e91906131e6565b602060405180830381865afa15801561195b573d6000803e3d6000fd5b505050506040513d601f19601f8201168201806040525081019061197f9190613725565b935061198d85858b8b6123be565b8115611a05576119fe6008600e9054906101000a90046dffffffffffffffffffffffffffff166dffffffffffffffffffffffffffff16600860009054906101000a90046dffffffffffffffffffffffffffff166dffffffffffffffffffffffffffff166122f890919063ffffffff16565b600b819055505b8b73ffffffffffffffffffffffffffffffffffffffff163373ffffffffffffffffffffffffffffffffffffffff167fdccd412f0b1252819cb1fd330b93224ca42612892bb3f4f789976e6d819364968d8d604051611a64929190613356565b60405180910390a35050505050505050506001600c81905550915091565b6040518060400160405280600381526020017f534c50000000000000000000000000000000000000000000000000000000000081525081565b6000611ac83384846127bd565b6001905092915050565b6103e881565b6001600c5414611b1d576040517f08c379a0000000000000000000000000000000000000000000000000000000008152600401611b14906134c5565b60405180910390fd5b6000600c819055506000600660009054906101000a900473ffffffffffffffffffffffffffffffffffffffff1690506000600760009054906101000a900473ffffffffffffffffffffffffffffffffffffffff169050611c358284611c30600860009054906101000a90046dffffffffffffffffffffffffffff166dffffffffffffffffffffffffffff168673ffffffffffffffffffffffffffffffffffffffff166370a08231306040518263ffffffff1660e01b8152600401611be191906131e6565b602060405180830381865afa158015611bfe573d6000803e3d6000fd5b505050506040513d601f19601f82011682018060405250810190611c229190613725565b61236590919063ffffffff16565b61216e565b611cf78184611cf26008600e9054906101000a90046dffffffffffffffffffffffffffff166dffffffffffffffffffffffffffff168573ffffffffffffffffffffffffffffffffffffffff166370a08231306040518263ffffffff1660e01b8152600401611ca391906131e6565b602060405180830381865afa158015611cc0573d6000803e3d6000fd5b505050506040513d601f19601f82011682018060405250810190611ce49190613725565b61236590919063ffffffff16565b61216e565b50506001600c8190555050565b600560009054906101000a900473ffffffffffffffffffffffffffffffffffffffff1681565b600760009054906101000a900473ffffffffffffffffffffffffffffffffffffffff1681565b42841015611d93576040517f08c379a0000000000000000000000000000000000000000000000000000000008152600401611d8a90613c4e565b60405180910390fd5b60006003547f6e71edae12b1b97f4d1f60370fef10105fa2faae0126114a169c64845d6126c960001b898989600460008e73ffffffffffffffffffffffffffffffffffffffff1673ffffffffffffffffffffffffffffffffffffffff1681526020019081526020016000206000815480929190611e0f90613c6e565b919050558a604051602001611e2996959493929190613cb7565b60405160208183030381529060405280519060200120604051602001611e50929190613d90565b604051602081830303815290604052805190602001209050600060018286868660405160008152602001604052604051611e8d9493929190613dc7565b6020604051602081039080840390855afa158015611eaf573d6000803e3d6000fd5b505050602060405103519050600073ffffffffffffffffffffffffffffffffffffffff168173ffffffffffffffffffffffffffffffffffffffff1614158015611f2357508873ffffffffffffffffffffffffffffffffffffffff168173ffffffffffffffffffffffffffffffffffffffff16145b611f62576040517f08c379a0000000000000000000000000000000000000000000000000000000008152600401611f5990613e58565b60405180910390fd5b611f6d8989896126d2565b505050505050505050565b6002602052816000526040600020602052806000526040600020600091509150505481565b6001600c5414611fe2576040517f08c379a0000000000000000000000000000000000000000000000000000000008152600401611fd9906134c5565b60405180910390fd5b6000600c81905550612164600660009054906101000a900473ffffffffffffffffffffffffffffffffffffffff1673ffffffffffffffffffffffffffffffffffffffff166370a08231306040518263ffffffff1660e01b815260040161204891906131e6565b602060405180830381865afa158015612065573d6000803e3d6000fd5b505050506040513d601f19601f820116820180604052508101906120899190613725565b600760009054906101000a900473ffffffffffffffffffffffffffffffffffffffff1673ffffffffffffffffffffffffffffffffffffffff166370a08231306040518263ffffffff1660e01b81526004016120e491906131e6565b602060405180830381865afa158015612101573d6000803e3d6000fd5b505050506040513d601f19601f820116820180604052508101906121259190613725565b600860009054906101000a90046dffffffffffffffffffffffffffff166008600e9054906101000a90046dffffffffffffffffffffffffffff166123be565b6001600c81905550565b6000808473ffffffffffffffffffffffffffffffffffffffff166040518060400160405280601981526020017f7472616e7366657228616464726573732c75696e7432353629000000000000008152508051906020012085856040516024016121d8929190613e78565b604051602081830303815290604052907bffffffffffffffffffffffffffffffffffffffffffffffffffffffff19166020820180517bffffffffffffffffffffffffffffffffffffffffffffffffffffffff83818316178352505050506040516122429190613ee8565b6000604051808303816000865af19150503d806000811461227f576040519150601f19603f3d011682016040523d82523d6000602084013e612284565b606091505b50915091508180156122b257506000815114806122b15750808060200190518101906122b09190613f2b565b5b5b6122f1576040517f08c379a00000000000000000000000000000000000000000000000000000000081526004016122e890613fa4565b60405180910390fd5b5050505050565b6000808214806123205750828283856123119190613fc4565b92508261231e9190613aad565b145b61235f576040517f08c379a00000000000000000000000000000000000000000000000000000000081526004016123569061406a565b60405180910390fd5b92915050565b60008282846123749190613781565b91508111156123b8576040517f08c379a00000000000000000000000000000000000000000000000000000000081526004016123af906140d6565b60405180910390fd5b92915050565b7fffffffffffffffffffffffffffffffffffffffffffffffffffffffffffffffff841115801561240e57507fffffffffffffffffffffffffffffffffffffffffffffffffffffffffffffffff8311155b61244d576040517f08c379a000000000000000000000000000000000000000000000000000000000815260040161244490614142565b60405180910390fd5b6000640100000000426124609190614162565b905060006008601c9054906101000a900463ffffffff16826124829190614193565b905060008163ffffffff161180156124ab57506000846dffffffffffffffffffffffffffff1614155b80156124c857506000836dffffffffffffffffffffffffffff1614155b156125ce578063ffffffff1661250d856124e186612de9565b7bffffffffffffffffffffffffffffffffffffffffffffffffffffffff16612e1d90919063ffffffff16565b7bffffffffffffffffffffffffffffffffffffffffffffffffffffffff166125359190613fc4565b6009600082825461254691906141c7565b925050819055508063ffffffff1661258d8461256187612de9565b7bffffffffffffffffffffffffffffffffffffffffffffffffffffffff16612e1d90919063ffffffff16565b7bffffffffffffffffffffffffffffffffffffffffffffffffffffffff166125b59190613fc4565b600a60008282546125c691906141c7565b925050819055505b85600860006101000a8154816dffffffffffffffffffffffffffff02191690836dffffffffffffffffffffffffffff160217905550846008600e6101000a8154816dffffffffffffffffffffffffffff02191690836dffffffffffffffffffffffffffff160217905550816008601c6101000a81548163ffffffff021916908363ffffffff1602179055507f1c411e9a96e071241c2f21f7726b17ae89e3cab4c78be50e062b03a9fffbbad1600860009054906101000a90046dffffffffffffffffffffffffffff166008600e9054906101000a90046dffffffffffffffffffffffffffff166040516126c292919061421d565b60405180910390a1505050505050565b80600260008573ffffffffffffffffffffffffffffffffffffffff1673ffffffffffffffffffffffffffffffffffffffff16815260200190815260200160002060008473ffffffffffffffffffffffffffffffffffffffff1673ffffffffffffffffffffffffffffffffffffffff168152602001908152602001600020819055508173ffffffffffffffffffffffffffffffffffffffff168373ffffffffffffffffffffffffffffffffffffffff167f8c5be1e5ebec7d5bd14f71427d1e84f3dd0314c0f7b2291e5b200ac8c7c3b925836040516127b09190613210565b60405180910390a3505050565b61280f81600160008673ffffffffffffffffffffffffffffffffffffffff1673ffffffffffffffffffffffffffffffffffffffff1681526020019081526020016000205461236590919063ffffffff16565b600160008573ffffffffffffffffffffffffffffffffffffffff1673ffffffffffffffffffffffffffffffffffffffff168152602001908152602001600020819055506128a481600160008573ffffffffffffffffffffffffffffffffffffffff1673ffffffffffffffffffffffffffffffffffffffff16815260200190815260200160002054612e4390919063ffffffff16565b600160008473ffffffffffffffffffffffffffffffffffffffff1673ffffffffffffffffffffffffffffffffffffffff168152602001908152602001600020819055508173ffffffffffffffffffffffffffffffffffffffff168373ffffffffffffffffffffffffffffffffffffffff167fddf252ad1be2c89b69c2b068fc378daa952ba7f163c4a11628f55a4df523b3ef836040516129449190613210565b60405180910390a3505050565b600080600560009054906101000a900473ffffffffffffffffffffffffffffffffffffffff1673ffffffffffffffffffffffffffffffffffffffff1663017e7e586040518163ffffffff1660e01b8152600401602060405180830381865afa1580156129c1573d6000803e3d6000fd5b505050506040513d601f19601f820116820180604052508101906129e59190613979565b9050600073ffffffffffffffffffffffffffffffffffffffff168173ffffffffffffffffffffffffffffffffffffffff16141591506000600b5490508215612b085760008114612b03576000612a6c612a67866dffffffffffffffffffffffffffff16886dffffffffffffffffffffffffffff166122f890919063ffffffff16565b612b22565b90506000612a7983612b22565b905080821115612b00576000612aac612a9b838561236590919063ffffffff16565b6000546122f890919063ffffffff16565b90506000612ad683612ac86005876122f890919063ffffffff16565b612e4390919063ffffffff16565b905060008183612ae69190613aad565b90506000811115612afc57612afb8782612b9c565b5b5050505b50505b612b1a565b60008114612b19576000600b819055505b5b505092915050565b60006003821115612b895781905060006001600284612b419190613aad565b612b4b91906141c7565b90505b81811015612b83578091506002818285612b689190613aad565b612b7291906141c7565b612b7c9190613aad565b9050612b4e565b50612b97565b60008214612b9657600190505b5b919050565b612bb181600054612e4390919063ffffffff16565b600081905550612c0981600160008573ffffffffffffffffffffffffffffffffffffffff1673ffffffffffffffffffffffffffffffffffffffff16815260200190815260200160002054612e4390919063ffffffff16565b600160008473ffffffffffffffffffffffffffffffffffffffff1673ffffffffffffffffffffffffffffffffffffffff168152602001908152602001600020819055508173ffffffffffffffffffffffffffffffffffffffff16600073ffffffffffffffffffffffffffffffffffffffff167fddf252ad1be2c89b69c2b068fc378daa952ba7f163c4a11628f55a4df523b3ef83604051612caa9190613210565b60405180910390a35050565b6000818310612cc55781612cc7565b825b905092915050565b612d2181600160008573ffffffffffffffffffffffffffffffffffffffff1673ffffffffffffffffffffffffffffffffffffffff1681526020019081526020016000205461236590919063ffffffff16565b600160008473ffffffffffffffffffffffffffffffffffffffff1673ffffffffffffffffffffffffffffffffffffffff16815260200190815260200160002081905550612d798160005461236590919063ffffffff16565b600081905550600073ffffffffffffffffffffffffffffffffffffffff168273ffffffffffffffffffffffffffffffffffffffff167fddf252ad1be2c89b69c2b068fc378daa952ba7f163c4a11628f55a4df523b3ef83604051612ddd9190613210565b60405180910390a35050565b60006e010000000000000000000000000000826dffffffffffffffffffffffffffff16612e16919061426e565b9050919050565b6000816dffffffffffffffffffffffffffff1683612e3b91906142c4565b905092915050565b6000828284612e5291906141c7565b9150811015612e96576040517f08c379a0000000000000000000000000000000000000000000000000000000008152600401612e8d90614341565b60405180910390fd5b92915050565b600080fd5b600080fd5b6000819050919050565b612eb981612ea6565b8114612ec457600080fd5b50565b600081359050612ed681612eb0565b92915050565b600073ffffffffffffffffffffffffffffffffffffffff82169050919050565b6000612f0782612edc565b9050919050565b612f1781612efc565b8114612f2257600080fd5b50565b600081359050612f3481612f0e565b92915050565b600080fd5b600080fd5b600080fd5b60008083601f840112612f5f57612f5e612f3a565b5b8235905067ffffffffffffffff811115612f7c57612f7b612f3f565b5b602083019150836001820283011115612f9857612f97612f44565b5b9250929050565b600080600080600060808688031215612fbb57612fba612e9c565b5b6000612fc988828901612ec7565b9550506020612fda88828901612ec7565b9450506040612feb88828901612f25565b935050606086013567ffffffffffffffff81111561300c5761300b612ea1565b5b61301888828901612f49565b92509250509295509295909350565b600081519050919050565b600082825260208201905092915050565b60005b83811015613061578082015181840152602081019050613046565b83811115613070576000848401525b50505050565b6000601f19601f8301169050919050565b600061309282613027565b61309c8185613032565b93506130ac818560208601613043565b6130b581613076565b840191505092915050565b600060208201905081810360008301526130da8184613087565b905092915050565b60006dffffffffffffffffffffffffffff82169050919050565b613105816130e2565b82525050565b600063ffffffff82169050919050565b6131248161310b565b82525050565b600060608201905061313f60008301866130fc565b61314c60208301856130fc565b613159604083018461311b565b949350505050565b6000806040838503121561317857613177612e9c565b5b600061318685828601612f25565b925050602061319785828601612ec7565b9150509250929050565b60008115159050919050565b6131b6816131a1565b82525050565b60006020820190506131d160008301846131ad565b92915050565b6131e081612efc565b82525050565b60006020820190506131fb60008301846131d7565b92915050565b61320a81612ea6565b82525050565b60006020820190506132256000830184613201565b92915050565b60008060006060848603121561324457613243612e9c565b5b600061325286828701612f25565b935050602061326386828701612f25565b925050604061327486828701612ec7565b9150509250925092565b6000819050919050565b6132918161327e565b82525050565b60006020820190506132ac6000830184613288565b92915050565b600060ff82169050919050565b6132c8816132b2565b82525050565b60006020820190506132e360008301846132bf565b92915050565b60008060408385031215613300576132ff612e9c565b5b600061330e85828601612f25565b925050602061331f85828601612f25565b9150509250929050565b60006020828403121561333f5761333e612e9c565b5b600061334d84828501612f25565b91505092915050565b600060408201905061336b6000830185613201565b6133786020830184613201565b9392505050565b613388816132b2565b811461339357600080fd5b50565b6000813590506133a58161337f565b92915050565b6133b48161327e565b81146133bf57600080fd5b50565b6000813590506133d1816133ab565b92915050565b600080600080600080600060e0888a0312156133f6576133f5612e9c565b5b60006134048a828b01612f25565b97505060206134158a828b01612f25565b96505060406134268a828b01612ec7565b95505060606134378a828b01612ec7565b94505060806134488a828b01613396565b93505060a06134598a828b016133c2565b92505060c061346a8a828b016133c2565b91505092959891949750929550565b7f556e697377617056323a204c4f434b4544000000000000000000000000000000600082015250565b60006134af601183613032565b91506134ba82613479565b602082019050919050565b600060208201905081810360008301526134de816134a2565b9050919050565b7f556e697377617056323a20494e53554646494349454e545f4f55545055545f4160008201527f4d4f554e54000000000000000000000000000000000000000000000000000000602082015250565b6000613541602583613032565b915061354c826134e5565b604082019050919050565b6000602082019050818103600083015261357081613534565b9050919050565b7f556e697377617056323a20494e53554646494349454e545f4c4951554944495460008201527f5900000000000000000000000000000000000000000000000000000000000000602082015250565b60006135d3602183613032565b91506135de82613577565b604082019050919050565b60006020820190508181036000830152613602816135c6565b9050919050565b7f556e697377617056323a20494e56414c49445f544f0000000000000000000000600082015250565b600061363f601583613032565b915061364a82613609565b602082019050919050565b6000602082019050818103600083015261366e81613632565b9050919050565b600082825260208201905092915050565b82818337600083830152505050565b60006136a18385613675565b93506136ae838584613686565b6136b783613076565b840190509392505050565b60006080820190506136d760008301886131d7565b6136e46020830187613201565b6136f16040830186613201565b8181036060830152613704818486613695565b90509695505050505050565b60008151905061371f81612eb0565b92915050565b60006020828403121561373b5761373a612e9c565b5b600061374984828501613710565b91505092915050565b7f4e487b7100000000000000000000000000000000000000000000000000000000600052601160045260246000fd5b600061378c82612ea6565b915061379783612ea6565b9250828210156137aa576137a9613752565b5b828203905092915050565b7f556e697377617056323a20494e53554646494349454e545f494e5055545f414d60008201527f4f554e5400000000000000000000000000000000000000000000000000000000602082015250565b6000613811602483613032565b915061381c826137b5565b604082019050919050565b6000602082019050818103600083015261384081613804565b9050919050565b7f556e697377617056323a204b0000000000000000000000000000000000000000600082015250565b600061387d600c83613032565b915061388882613847565b602082019050919050565b600060208201905081810360008301526138ac81613870565b9050919050565b60006080820190506138c86000830187613201565b6138d56020830186613201565b6138e26040830185613201565b6138ef6060830184613201565b95945050505050565b7f556e697377617056323a20464f5242494444454e000000000000000000000000600082015250565b600061392e601483613032565b9150613939826138f8565b602082019050919050565b6000602082019050818103600083015261395d81613921565b9050919050565b60008151905061397381612f0e565b92915050565b60006020828403121561398f5761398e612e9c565b5b600061399d84828501613964565b91505092915050565b7f4261642064657369726564206c69717569646974790000000000000000000000600082015250565b60006139dc601583613032565b91506139e7826139a6565b602082019050919050565b60006020820190508181036000830152613a0b816139cf565b9050919050565b7f4d757374206e6f742068617665206d69677261746f7200000000000000000000600082015250565b6000613a48601683613032565b9150613a5382613a12565b602082019050919050565b60006020820190508181036000830152613a7781613a3b565b9050919050565b7f4e487b7100000000000000000000000000000000000000000000000000000000600052601260045260246000fd5b6000613ab882612ea6565b9150613ac383612ea6565b925082613ad357613ad2613a7e565b5b828204905092915050565b7f556e697377617056323a20494e53554646494349454e545f4c4951554944495460008201527f595f4d494e544544000000000000000000000000000000000000000000000000602082015250565b6000613b3a602883613032565b9150613b4582613ade565b604082019050919050565b60006020820190508181036000830152613b6981613b2d565b9050919050565b7f556e697377617056323a20494e53554646494349454e545f4c4951554944495460008201527f595f4255524e4544000000000000000000000000000000000000000000000000602082015250565b6000613bcc602883613032565b9150613bd782613b70565b604082019050919050565b60006020820190508181036000830152613bfb81613bbf565b9050919050565b7f556e697377617056323a20455850495245440000000000000000000000000000600082015250565b6000613c38601283613032565b9150613c4382613c02565b602082019050919050565b60006020820190508181036000830152613c6781613c2b565b9050919050565b6000613c7982612ea6565b91507fffffffffffffffffffffffffffffffffffffffffffffffffffffffffffffffff821415613cac57613cab613752565b5b600182019050919050565b600060c082019050613ccc6000830189613288565b613cd960208301886131d7565b613ce660408301876131d7565b613cf36060830186613201565b613d006080830185613201565b613d0d60a0830184613201565b979650505050505050565b600081905092915050565b7f1901000000000000000000000000000000000000000000000000000000000000600082015250565b6000613d59600283613d18565b9150613d6482613d23565b600282019050919050565b6000819050919050565b613d8a613d858261327e565b613d6f565b82525050565b6000613d9b82613d4c565b9150613da78285613d79565b602082019150613db78284613d79565b6020820191508190509392505050565b6000608082019050613ddc6000830187613288565b613de960208301866132bf565b613df66040830185613288565b613e036060830184613288565b95945050505050565b7f556e697377617056323a20494e56414c49445f5349474e415455524500000000600082015250565b6000613e42601c83613032565b9150613e4d82613e0c565b602082019050919050565b60006020820190508181036000830152613e7181613e35565b9050919050565b6000604082019050613e8d60008301856131d7565b613e9a6020830184613201565b9392505050565b600081519050919050565b600081905092915050565b6000613ec282613ea1565b613ecc8185613eac565b9350613edc818560208601613043565b80840191505092915050565b6000613ef48284613eb7565b915081905092915050565b613f08816131a1565b8114613f1357600080fd5b50565b600081519050613f2581613eff565b92915050565b600060208284031215613f4157613f40612e9c565b5b6000613f4f84828501613f16565b91505092915050565b7f556e697377617056323a205452414e534645525f4641494c4544000000000000600082015250565b6000613f8e601a83613032565b9150613f9982613f58565b602082019050919050565b60006020820190508181036000830152613fbd81613f81565b9050919050565b6000613fcf82612ea6565b9150613fda83612ea6565b9250817fffffffffffffffffffffffffffffffffffffffffffffffffffffffffffffffff048311821515161561401357614012613752565b5b828202905092915050565b7f64732d6d6174682d6d756c2d6f766572666c6f77000000000000000000000000600082015250565b6000614054601483613032565b915061405f8261401e565b602082019050919050565b6000602082019050818103600083015261408381614047565b9050919050565b7f64732d6d6174682d7375622d756e646572666c6f770000000000000000000000600082015250565b60006140c0601583613032565b91506140cb8261408a565b602082019050919050565b600060208201905081810360008301526140ef816140b3565b9050919050565b7f556e697377617056323a204f564552464c4f5700000000000000000000000000600082015250565b600061412c601383613032565b9150614137826140f6565b602082019050919050565b6000602082019050818103600083015261415b8161411f565b9050919050565b600061416d82612ea6565b915061417883612ea6565b92508261418857614187613a7e565b5b828206905092915050565b600061419e8261310b565b91506141a98361310b565b9250828210156141bc576141bb613752565b5b828203905092915050565b60006141d282612ea6565b91506141dd83612ea6565b9250827fffffffffffffffffffffffffffffffffffffffffffffffffffffffffffffffff0382111561421257614211613752565b5b828201905092915050565b600060408201905061423260008301856130fc565b61423f60208301846130fc565b9392505050565b60007bffffffffffffffffffffffffffffffffffffffffffffffffffffffff82169050919050565b600061427982614246565b915061428483614246565b9250817bffffffffffffffffffffffffffffffffffffffffffffffffffffffff04831182151516156142b9576142b8613752565b5b828202905092915050565b60006142cf82614246565b91506142da83614246565b9250826142ea576142e9613a7e565b5b828204905092915050565b7f64732d6d6174682d6164642d6f766572666c6f77000000000000000000000000600082015250565b600061432b601483613032565b9150614336826142f5565b602082019050919050565b6000602082019050818103600083015261435a8161431e565b905091905056fea26469706673582212200d332846b888713401fd1cd4acfbf8030a9a2f116f902f2d785dec2107316bea64736f6c634300080b0033a26469706673582212208d37aa74092017ef39feb85fcd32dffbeb942b916c4f19a62ed4fc06911180e464736f6c634300080b0033",
    "linkReferences": {},
    "deployedLinkReferences": {}
}